{
  "contractName": "Checkers",
  "abi": [
    {
      "inputs": [],
      "stateMutability": "nonpayable",
      "type": "constructor"
    },
    {
      "inputs": [],
      "name": "admin",
      "outputs": [
        {
          "internalType": "address",
          "name": "",
          "type": "address"
        }
      ],
      "stateMutability": "view",
      "type": "function",
      "constant": true
    },
    {
      "inputs": [
        {
          "internalType": "address",
          "name": "",
          "type": "address"
        }
      ],
      "name": "allPlayers",
      "outputs": [
        {
          "internalType": "address",
          "name": "playerAddr",
          "type": "address"
        },
        {
          "internalType": "bool",
          "name": "registered",
          "type": "bool"
        },
        {
          "internalType": "uint256",
          "name": "rank",
          "type": "uint256"
        },
        {
          "internalType": "uint256",
          "name": "wins",
          "type": "uint256"
        },
        {
          "internalType": "uint256",
          "name": "losses",
          "type": "uint256"
        }
      ],
      "stateMutability": "view",
      "type": "function",
      "constant": true
    },
    {
      "inputs": [
        {
          "internalType": "uint256",
          "name": "",
          "type": "uint256"
        }
      ],
      "name": "createdGames",
      "outputs": [
        {
          "internalType": "uint256",
          "name": "",
          "type": "uint256"
        }
      ],
      "stateMutability": "view",
      "type": "function",
      "constant": true
    },
    {
      "inputs": [],
      "name": "gameCounter",
      "outputs": [
        {
          "internalType": "uint256",
          "name": "",
          "type": "uint256"
        }
      ],
      "stateMutability": "view",
      "type": "function",
      "constant": true
    },
    {
      "inputs": [
        {
          "internalType": "uint256",
          "name": "",
          "type": "uint256"
        }
      ],
      "name": "games",
      "outputs": [
        {
          "internalType": "uint256",
          "name": "id",
          "type": "uint256"
        },
        {
          "internalType": "bool",
          "name": "created",
          "type": "bool"
        },
        {
          "internalType": "bool",
          "name": "started",
          "type": "bool"
        },
        {
          "internalType": "bool",
          "name": "ended",
          "type": "bool"
        },
        {
          "internalType": "uint256",
          "name": "stake",
          "type": "uint256"
        },
        {
          "internalType": "uint8",
          "name": "statePlayer",
          "type": "uint8"
        }
      ],
      "stateMutability": "view",
      "type": "function",
      "constant": true
    },
    {
      "inputs": [],
      "name": "deposit",
      "outputs": [],
      "stateMutability": "payable",
      "type": "function",
      "payable": true
    },
    {
      "inputs": [],
      "name": "register",
      "outputs": [],
      "stateMutability": "payable",
      "type": "function",
      "payable": true
    },
    {
      "inputs": [
        {
          "internalType": "uint256",
          "name": "stake",
          "type": "uint256"
        }
      ],
      "name": "createGame",
      "outputs": [],
      "stateMutability": "nonpayable",
      "type": "function"
    },
    {
      "inputs": [
        {
          "internalType": "uint256",
          "name": "gameId",
          "type": "uint256"
        }
      ],
      "name": "joinGame",
      "outputs": [],
      "stateMutability": "payable",
      "type": "function",
      "payable": true
    },
    {
      "inputs": [
        {
          "internalType": "uint256",
          "name": "gameId",
          "type": "uint256"
        },
        {
          "internalType": "uint8",
          "name": "fromX",
          "type": "uint8"
        },
        {
          "internalType": "uint8",
          "name": "fromY",
          "type": "uint8"
        },
        {
          "internalType": "uint8",
          "name": "toX",
          "type": "uint8"
        },
        {
          "internalType": "uint8",
          "name": "toY",
          "type": "uint8"
        }
      ],
      "name": "makeMove",
      "outputs": [],
      "stateMutability": "nonpayable",
      "type": "function"
    },
    {
      "inputs": [],
      "name": "getPlayer",
      "outputs": [
        {
          "components": [
            {
              "internalType": "address",
              "name": "playerAddr",
              "type": "address"
            },
            {
              "internalType": "bool",
              "name": "registered",
              "type": "bool"
            },
            {
              "internalType": "uint256",
              "name": "rank",
              "type": "uint256"
            },
            {
              "internalType": "uint256",
              "name": "wins",
              "type": "uint256"
            },
            {
              "internalType": "uint256",
              "name": "losses",
              "type": "uint256"
            }
          ],
          "internalType": "struct Checkers.Player",
          "name": "",
          "type": "tuple"
        }
      ],
      "stateMutability": "view",
      "type": "function",
      "constant": true
    },
    {
      "inputs": [],
      "name": "getAdminAddress",
      "outputs": [
        {
          "internalType": "address",
          "name": "",
          "type": "address"
        }
      ],
      "stateMutability": "view",
      "type": "function",
      "constant": true
    },
    {
      "inputs": [
        {
          "internalType": "uint256",
          "name": "gameId",
          "type": "uint256"
        }
      ],
      "name": "getBoard",
      "outputs": [
        {
          "internalType": "uint8[8][8]",
          "name": "",
          "type": "uint8[8][8]"
        }
      ],
      "stateMutability": "view",
      "type": "function",
      "constant": true
    },
    {
      "inputs": [],
      "name": "getSenderGames",
      "outputs": [
        {
          "components": [
            {
              "internalType": "uint256",
              "name": "id",
              "type": "uint256"
            },
            {
              "internalType": "bool",
              "name": "created",
              "type": "bool"
            },
            {
              "internalType": "bool",
              "name": "started",
              "type": "bool"
            },
            {
              "internalType": "bool",
              "name": "ended",
              "type": "bool"
            },
            {
              "internalType": "uint256",
              "name": "stake",
              "type": "uint256"
            },
            {
              "components": [
                {
                  "internalType": "address",
                  "name": "playerAddr",
                  "type": "address"
                },
                {
                  "internalType": "bool",
                  "name": "registered",
                  "type": "bool"
                },
                {
                  "internalType": "uint256",
                  "name": "rank",
                  "type": "uint256"
                },
                {
                  "internalType": "uint256",
                  "name": "wins",
                  "type": "uint256"
                },
                {
                  "internalType": "uint256",
                  "name": "losses",
                  "type": "uint256"
                }
              ],
              "internalType": "struct Checkers.Player[2]",
              "name": "players",
              "type": "tuple[2]"
            },
            {
              "internalType": "uint8",
              "name": "statePlayer",
              "type": "uint8"
            },
            {
              "internalType": "uint8[8][8]",
              "name": "stateBoard",
              "type": "uint8[8][8]"
            }
          ],
          "internalType": "struct Checkers.Game[]",
          "name": "",
          "type": "tuple[]"
        }
      ],
      "stateMutability": "view",
      "type": "function",
      "constant": true
    },
    {
      "inputs": [
        {
          "internalType": "uint256",
          "name": "gameId",
          "type": "uint256"
        },
        {
          "components": [
            {
              "internalType": "uint8",
              "name": "x",
              "type": "uint8"
            },
            {
              "internalType": "uint8",
              "name": "y",
              "type": "uint8"
            }
          ],
          "internalType": "struct Checkers.Coordinate",
          "name": "from",
          "type": "tuple"
        }
      ],
      "name": "moreCapturesExist",
      "outputs": [
        {
          "internalType": "bool",
          "name": "",
          "type": "bool"
        }
      ],
      "stateMutability": "view",
      "type": "function",
      "constant": true
    },
    {
      "inputs": [
        {
          "internalType": "address",
          "name": "player",
          "type": "address"
        }
      ],
      "name": "isPlayerRegistered",
      "outputs": [
        {
          "internalType": "bool",
          "name": "",
          "type": "bool"
        }
      ],
      "stateMutability": "view",
      "type": "function",
      "constant": true
    },
    {
      "inputs": [
        {
          "internalType": "uint256",
          "name": "gameId",
          "type": "uint256"
        }
      ],
      "name": "isGameCreated",
      "outputs": [
        {
          "internalType": "bool",
          "name": "",
          "type": "bool"
        }
      ],
      "stateMutability": "view",
      "type": "function",
      "constant": true
    },
    {
      "inputs": [
        {
          "internalType": "uint256",
          "name": "gameId",
          "type": "uint256"
        }
      ],
      "name": "isGameStarted",
      "outputs": [
        {
          "internalType": "bool",
          "name": "",
          "type": "bool"
        }
      ],
      "stateMutability": "view",
      "type": "function",
      "constant": true
    },
    {
      "inputs": [
        {
          "internalType": "uint256",
          "name": "gameId",
          "type": "uint256"
        }
      ],
      "name": "isJoinedGame",
      "outputs": [
        {
          "internalType": "bool",
          "name": "",
          "type": "bool"
        }
      ],
      "stateMutability": "view",
      "type": "function",
      "constant": true
    },
    {
      "inputs": [
        {
          "internalType": "uint256",
          "name": "gameId",
          "type": "uint256"
        }
      ],
      "name": "getGamePlayers",
      "outputs": [
        {
          "internalType": "address[2]",
          "name": "",
          "type": "address[2]"
        }
      ],
      "stateMutability": "view",
      "type": "function",
      "constant": true
    }
  ],
  "bytecode": "0x608060405260006001553480156200001657600080fd5b50336000806101000a81548173ffffffffffffffffffffffffffffffffffffffff021916908373ffffffffffffffffffffffffffffffffffffffff1602179055506200008860008054906101000a900473ffffffffffffffffffffffffffffffffffffffff166200008e60201b60201c565b62000153565b6000600260008373ffffffffffffffffffffffffffffffffffffffff1673ffffffffffffffffffffffffffffffffffffffff1681526020019081526020016000209050818160000160006101000a81548173ffffffffffffffffffffffffffffffffffffffff021916908373ffffffffffffffffffffffffffffffffffffffff16021790555060018160000160146101000a81548160ff0219169083151502179055506064816001018190555060008160020181905550600081600301819055505050565b6150de80620001636000396000f3fe60806040526004361061011f5760003560e01c80638ace53c6116100a0578063d0e30db011610064578063d0e30db014610419578063de4513aa14610423578063e1d4277914610464578063efaa55a0146104a1578063f851a440146104bd5761011f565b80638ace53c61461030c578063a07be3b814610349578063a681920514610386578063ae945847146103b1578063b2e6b912146103ee5761011f565b80633308f42d116100e75780633308f42d1461021557806345e09e541461024057806348e837b91461027d578063601d4129146102a657806381578504146102cf5761011f565b8063117a5b90146101245780631417b82a1461016657806315a40f49146101a35780631aa3a008146101e05780632e0be39a146101ea575b600080fd5b34801561013057600080fd5b5061014b60048036038101906101469190613da0565b6104e8565b60405161015d96959493929190614a69565b60405180910390f35b34801561017257600080fd5b5061018d60048036038101906101889190613d77565b610558565b60405161019a9190614838565b60405180910390f35b3480156101af57600080fd5b506101ca60048036038101906101c59190613da0565b6105b1565b6040516101d791906147df565b60405180910390f35b6101e861079a565b005b3480156101f657600080fd5b506101ff610886565b60405161020c9190614a4e565b60405180910390f35b34801561022157600080fd5b5061022a61088c565b6040516102379190614a33565b60405180910390f35b34801561024c57600080fd5b5061026760048036038101906102629190613da0565b610972565b60405161027491906147fa565b60405180910390f35b34801561028957600080fd5b506102a4600480360381019061029f9190613da0565b610a8d565b005b3480156102b257600080fd5b506102cd60048036038101906102c89190613e05565b610fa3565b005b3480156102db57600080fd5b506102f660048036038101906102f19190613da0565b611162565b6040516103039190614838565b60405180910390f35b34801561031857600080fd5b50610333600480360381019061032e9190613dc9565b61118f565b6040516103409190614838565b60405180910390f35b34801561035557600080fd5b50610370600480360381019061036b9190613da0565b611587565b60405161037d9190614838565b60405180910390f35b34801561039257600080fd5b5061039b6115b4565b6040516103a89190614816565b60405180910390f35b3480156103bd57600080fd5b506103d860048036038101906103d39190613da0565b6119e1565b6040516103e59190614a4e565b60405180910390f35b3480156103fa57600080fd5b50610403611a05565b6040516104109190614771565b60405180910390f35b610421611a2e565b005b34801561042f57600080fd5b5061044a60048036038101906104459190613d77565b611abe565b60405161045b95949392919061478c565b60405180910390f35b34801561047057600080fd5b5061048b60048036038101906104869190613da0565b611b21565b6040516104989190614838565b60405180910390f35b6104bb60048036038101906104b69190613da0565b611c7b565b005b3480156104c957600080fd5b506104d26120c6565b6040516104df9190614771565b60405180910390f35b60036020528060005260406000206000915090508060000154908060010160009054906101000a900460ff16908060010160019054906101000a900460ff16908060010160029054906101000a900460ff169080600201549080600b0160009054906101000a900460ff16905086565b6000600260008373ffffffffffffffffffffffffffffffffffffffff1673ffffffffffffffffffffffffffffffffffffffff16815260200190815260200160002060000160149054906101000a900460ff169050919050565b6105b9613a7b565b6105c1613a7b565b60036000848152602001908152602001600020600301600060028110610610577f4e487b7100000000000000000000000000000000000000000000000000000000600052603260045260246000fd5b6004020160000160009054906101000a900473ffffffffffffffffffffffffffffffffffffffff1681600060028110610672577f4e487b7100000000000000000000000000000000000000000000000000000000600052603260045260246000fd5b602002019073ffffffffffffffffffffffffffffffffffffffff16908173ffffffffffffffffffffffffffffffffffffffff1681525050600360008481526020019081526020016000206003016001600281106106f8577f4e487b7100000000000000000000000000000000000000000000000000000000600052603260045260246000fd5b6004020160000160009054906101000a900473ffffffffffffffffffffffffffffffffffffffff168160016002811061075a577f4e487b7100000000000000000000000000000000000000000000000000000000600052603260045260246000fd5b602002019073ffffffffffffffffffffffffffffffffffffffff16908173ffffffffffffffffffffffffffffffffffffffff168152505080915050919050565b671bc16d674ec800003410156107e5576040517f08c379a00000000000000000000000000000000000000000000000000000000081526004016107dc906149b3565b60405180910390fd5b60001515600260003373ffffffffffffffffffffffffffffffffffffffff1673ffffffffffffffffffffffffffffffffffffffff16815260200190815260200160002060000160149054906101000a900460ff1615151461087b576040517f08c379a000000000000000000000000000000000000000000000000000000000815260040161087290614913565b60405180910390fd5b610884336120ea565b565b60015481565b610894613a9d565b600260003373ffffffffffffffffffffffffffffffffffffffff1673ffffffffffffffffffffffffffffffffffffffff1681526020019081526020016000206040518060a00160405290816000820160009054906101000a900473ffffffffffffffffffffffffffffffffffffffff1673ffffffffffffffffffffffffffffffffffffffff1673ffffffffffffffffffffffffffffffffffffffff1681526020016000820160149054906101000a900460ff161515151581526020016001820154815260200160028201548152602001600382015481525050905090565b61097a613ae4565b610983336121af565b8061099457506109933383612208565b5b6109d3576040517f08c379a00000000000000000000000000000000000000000000000000000000081526004016109ca90614973565b60405180910390fd5b600060036000848152602001908152602001600020600c01600880602002604051908101604052809291906000905b82821015610a7e57838201600880602002604051908101604052809291908260088015610a6a576020028201916000905b82829054906101000a900460ff1660ff1681526020019060010190602082600001049283019260010382029150808411610a335790505b505050505081526020019060010190610a02565b50505050905080915050919050565b60008054906101000a900473ffffffffffffffffffffffffffffffffffffffff1673ffffffffffffffffffffffffffffffffffffffff163373ffffffffffffffffffffffffffffffffffffffff1614610b1b576040517f08c379a0000000000000000000000000000000000000000000000000000000008152600401610b1290614a13565b60405180910390fd5b60016000815480929190610b2e90614f63565b919050555060015460036000600154815260200190815260200160002060000181905550600160036000600154815260200190815260200160002060010160006101000a81548160ff021916908315150217905550600060036000600154815260200190815260200160002060010160016101000a81548160ff021916908315150217905550600060036000600154815260200190815260200160002060010160026101000a81548160ff02191690831515021790555080600360006001548152602001908152602001600020600201819055506000600360006001548152602001908152602001600020600b0160006101000a81548160ff021916908360ff160217905550604051806101000160405280604051806101000160405280600160ff1660ff168152602001600060ff168152602001600160ff168152602001600060ff168152602001600160ff168152602001600060ff168152602001600160ff168152602001600060ff168152508152602001604051806101000160405280600060ff1660ff168152602001600160ff168152602001600060ff168152602001600160ff168152602001600060ff168152602001600160ff168152602001600060ff168152602001600160ff168152508152602001604051806101000160405280600160ff1660ff168152602001600060ff168152602001600160ff168152602001600060ff168152602001600160ff168152602001600060ff168152602001600160ff168152602001600060ff168152508152602001604051806101000160405280600060ff1660ff168152602001600060ff168152602001600060ff168152602001600060ff168152602001600060ff168152602001600060ff168152602001600060ff168152602001600060ff168152508152602001604051806101000160405280600060ff1660ff168152602001600060ff168152602001600060ff168152602001600060ff168152602001600060ff168152602001600060ff168152602001600060ff168152602001600060ff168152508152602001604051806101000160405280600060ff1660ff168152602001600360ff168152602001600060ff168152602001600360ff168152602001600060ff168152602001600360ff168152602001600060ff168152602001600360ff168152508152602001604051806101000160405280600360ff1660ff168152602001600060ff168152602001600360ff168152602001600060ff168152602001600360ff168152602001600060ff168152602001600360ff168152602001600060ff168152508152602001604051806101000160405280600060ff1660ff168152602001600360ff168152602001600060ff168152602001600360ff168152602001600060ff168152602001600360ff168152602001600060ff168152602001600360ff16815250815250600360006001548152602001908152602001600020600c01906008610f74929190613b12565b506004600154908060018154018082558091505060019003906000526020600020016000909190919091505550565b600060405180604001604052808660ff1681526020018560ff168152509050600060405180604001604052808560ff1681526020018460ff168152509050610feb3388612208565b61102a576040517f08c379a0000000000000000000000000000000000000000000000000000000008152600401611021906148b3565b60405180910390fd5b61103387612363565b611072576040517f08c379a0000000000000000000000000000000000000000000000000000000008152600401611069906148d3565b60405180910390fd5b61107b87612390565b156110bb576040517f08c379a00000000000000000000000000000000000000000000000000000000081526004016110b290614893565b60405180910390fd5b6110c533886123bd565b611104576040517f08c379a00000000000000000000000000000000000000000000000000000000081526004016110fb90614933565b60405180910390fd5b61110f878383612496565b61114e576040517f08c379a000000000000000000000000000000000000000000000000000000000815260040161114590614953565b60405180910390fd5b611159878383612dae565b50505050505050565b60006003600083815260200190815260200160002060010160009054906101000a900460ff169050919050565b600080600360008581526020019081526020016000209050600081600c01846000015160ff16600881106111ec577f4e487b7100000000000000000000000000000000000000000000000000000000600052603260045260246000fd5b01846020015160ff166008811061122c577f4e487b7100000000000000000000000000000000000000000000000000000000600052603260045260246000fd5b602091828204019190069054906101000a900460ff169050600082600b0160009054906101000a900460ff1660026112649190614df3565b60016112709190614c79565b9050600083600b0160009054906101000a900460ff1660026112929190614df3565b600361129e9190614ea3565b905060008260ff168460ff1614156112b957600290506112be565b600790505b60007fffffffffffffffffffffffffffffffffffffffffffffffffffffffffffffffff90505b60018160000b136115765760007fffffffffffffffffffffffffffffffffffffffffffffffffffffffffffffffff90505b60018160000b13611561576000600190505b8360000b8160000b121561154c57600083826113439190614d1a565b8b600001516113529190614c04565b9050600083836113629190614d1a565b8c602001516113719190614c04565b905060018260000b1280611388575060068260000b135b80611396575060018160000b125b806113a4575060068160000b135b156113b057505061154c565b60008a600c018360ff16600881106113f1577f4e487b7100000000000000000000000000000000000000000000000000000000600052603260045260246000fd5b018260ff166008811061142d577f4e487b7100000000000000000000000000000000000000000000000000000000600052603260045260246000fd5b602091828204019190069054906101000a900460ff1690508760ff168160ff16148061146a57506001886114619190614c79565b60ff168160ff16145b156115365760008b600c0187856114819190614c04565b60ff16600881106114bb577f4e487b7100000000000000000000000000000000000000000000000000000000600052603260045260246000fd5b0186846114c89190614c04565b60ff1660088110611502577f4e487b7100000000000000000000000000000000000000000000000000000000600052603260045260246000fd5b602091828204019190069054906101000a900460ff1660ff1614156115355760019b505050505050505050505050611581565b5b505050808061154490614f39565b915050611327565b5060028161155a9190614c04565b9050611315565b5060028161156f9190614c04565b90506112e4565b506000955050505050505b92915050565b60006003600083815260200190815260200160002060010160019054906101000a900460ff169050919050565b6060600260003373ffffffffffffffffffffffffffffffffffffffff1673ffffffffffffffffffffffffffffffffffffffff16815260200190815260200160002060000160149054906101000a900460ff16611645576040517f08c379a000000000000000000000000000000000000000000000000000000000815260040161163c90614853565b60405180910390fd5b600060048054905067ffffffffffffffff81111561168c577f4e487b7100000000000000000000000000000000000000000000000000000000600052604160045260246000fd5b6040519080825280602002602001820160405280156116c557816020015b6116b2613b60565b8152602001906001900390816116aa5790505b5090506000805b6004805490508110156119d857600060048281548110611715577f4e487b7100000000000000000000000000000000000000000000000000000000600052603260045260246000fd5b9060005260206000200154905060006003600083815260200190815260200160002090508060010160019054906101000a900460ff1615806117615750611760338260000154612208565b5b156119c3578060405180610100016040529081600082015481526020016001820160009054906101000a900460ff161515151581526020016001820160019054906101000a900460ff161515151581526020016001820160029054906101000a900460ff161515151581526020016002820154815260200160038201600280602002604051908101604052809291906000905b828210156118ab578382600402016040518060a00160405290816000820160009054906101000a900473ffffffffffffffffffffffffffffffffffffffff1673ffffffffffffffffffffffffffffffffffffffff1673ffffffffffffffffffffffffffffffffffffffff1681526020016000820160149054906101000a900460ff161515151581526020016001820154815260200160028201548152602001600382015481525050815260200190600101906117f4565b505050508152602001600b820160009054906101000a900460ff1660ff1660ff168152602001600c8201600880602002604051908101604052809291906000905b8282101561196857838201600880602002604051908101604052809291908260088015611954576020028201916000905b82829054906101000a900460ff1660ff168152602001906001019060208260000104928301926001038202915080841161191d5790505b5050505050815260200190600101906118ec565b50505050815250508585815181106119a9577f4e487b7100000000000000000000000000000000000000000000000000000000600052603260045260246000fd5b602002602001018190525083806119bf90614f63565b9450505b505080806119d090614f63565b9150506116cc565b50819250505090565b600481815481106119f157600080fd5b906000526020600020016000915090505481565b60008060009054906101000a900473ffffffffffffffffffffffffffffffffffffffff16905090565b60008054906101000a900473ffffffffffffffffffffffffffffffffffffffff1673ffffffffffffffffffffffffffffffffffffffff163373ffffffffffffffffffffffffffffffffffffffff1614611abc576040517f08c379a0000000000000000000000000000000000000000000000000000000008152600401611ab390614a13565b60405180910390fd5b565b60026020528060005260406000206000915090508060000160009054906101000a900473ffffffffffffffffffffffffffffffffffffffff16908060000160149054906101000a900460ff16908060010154908060020154908060030154905085565b60003373ffffffffffffffffffffffffffffffffffffffff1660036000848152602001908152602001600020600301600060028110611b89577f4e487b7100000000000000000000000000000000000000000000000000000000600052603260045260246000fd5b6004020160000160009054906101000a900473ffffffffffffffffffffffffffffffffffffffff1673ffffffffffffffffffffffffffffffffffffffff161480611c7457503373ffffffffffffffffffffffffffffffffffffffff1660036000848152602001908152602001600020600301600160028110611c34577f4e487b7100000000000000000000000000000000000000000000000000000000600052603260045260246000fd5b6004020160000160009054906101000a900473ffffffffffffffffffffffffffffffffffffffff1673ffffffffffffffffffffffffffffffffffffffff16145b9050919050565b600260003373ffffffffffffffffffffffffffffffffffffffff1673ffffffffffffffffffffffffffffffffffffffff16815260200190815260200160002060000160149054906101000a900460ff16611d0a576040517f08c379a0000000000000000000000000000000000000000000000000000000008152600401611d0190614853565b60405180910390fd5b60006003600083815260200190815260200160002090506000600260003373ffffffffffffffffffffffffffffffffffffffff1673ffffffffffffffffffffffffffffffffffffffff16815260200190815260200160002090508060000160149054906101000a900460ff16611db5576040517f08c379a0000000000000000000000000000000000000000000000000000000008152600401611dac906149f3565b60405180910390fd5b8160010160009054906101000a900460ff16611e06576040517f08c379a0000000000000000000000000000000000000000000000000000000008152600401611dfd90614993565b60405180910390fd5b8160010160019054906101000a900460ff1615611e58576040517f08c379a0000000000000000000000000000000000000000000000000000000008152600401611e4f906148f3565b60405180910390fd5b3373ffffffffffffffffffffffffffffffffffffffff1682600301600060028110611eac577f4e487b7100000000000000000000000000000000000000000000000000000000600052603260045260246000fd5b6004020160000160009054906101000a900473ffffffffffffffffffffffffffffffffffffffff1673ffffffffffffffffffffffffffffffffffffffff161415611f2b576040517f08c379a0000000000000000000000000000000000000000000000000000000008152600401611f2290614873565b60405180910390fd5b81600201543414611f71576040517f08c379a0000000000000000000000000000000000000000000000000000000008152600401611f68906149d3565b60405180910390fd5b6000611f7c84613520565b905060028160ff1610156120845781836003018260ff1660028110611fca577f4e487b7100000000000000000000000000000000000000000000000000000000600052603260045260246000fd5b600402016000820160009054906101000a900473ffffffffffffffffffffffffffffffffffffffff168160000160006101000a81548173ffffffffffffffffffffffffffffffffffffffff021916908373ffffffffffffffffffffffffffffffffffffffff1602179055506000820160149054906101000a900460ff168160000160146101000a81548160ff0219169083151502179055506001820154816001015560028201548160020155600382015481600301559050505b60018160ff1614156120c05760016003600086815260200190815260200160002060010160016101000a81548160ff0219169083151502179055505b50505050565b60008054906101000a900473ffffffffffffffffffffffffffffffffffffffff1681565b6000600260008373ffffffffffffffffffffffffffffffffffffffff1673ffffffffffffffffffffffffffffffffffffffff1681526020019081526020016000209050818160000160006101000a81548173ffffffffffffffffffffffffffffffffffffffff021916908373ffffffffffffffffffffffffffffffffffffffff16021790555060018160000160146101000a81548160ff0219169083151502179055506064816001018190555060008160020181905550600081600301819055505050565b60008060009054906101000a900473ffffffffffffffffffffffffffffffffffffffff1673ffffffffffffffffffffffffffffffffffffffff168273ffffffffffffffffffffffffffffffffffffffff16149050919050565b60008273ffffffffffffffffffffffffffffffffffffffff1660036000848152602001908152602001600020600301600060028110612270577f4e487b7100000000000000000000000000000000000000000000000000000000600052603260045260246000fd5b6004020160000160009054906101000a900473ffffffffffffffffffffffffffffffffffffffff1673ffffffffffffffffffffffffffffffffffffffff16148061235b57508273ffffffffffffffffffffffffffffffffffffffff166003600084815260200190815260200160002060030160016002811061231b577f4e487b7100000000000000000000000000000000000000000000000000000000600052603260045260246000fd5b6004020160000160009054906101000a900473ffffffffffffffffffffffffffffffffffffffff1673ffffffffffffffffffffffffffffffffffffffff16145b905092915050565b60006003600083815260200190815260200160002060010160019054906101000a900460ff169050919050565b60006003600083815260200190815260200160002060010160029054906101000a900460ff169050919050565b60008060036000848152602001908152602001600020600b0160009054906101000a900460ff1660ff1690508373ffffffffffffffffffffffffffffffffffffffff1660036000858152602001908152602001600020600301826002811061244e577f4e487b7100000000000000000000000000000000000000000000000000000000600052603260045260246000fd5b6004020160000160009054906101000a900473ffffffffffffffffffffffffffffffffffffffff1673ffffffffffffffffffffffffffffffffffffffff161491505092915050565b6000806003600086815260200190815260200160002060405180610100016040529081600082015481526020016001820160009054906101000a900460ff161515151581526020016001820160019054906101000a900460ff161515151581526020016001820160029054906101000a900460ff161515151581526020016002820154815260200160038201600280602002604051908101604052809291906000905b828210156125f0578382600402016040518060a00160405290816000820160009054906101000a900473ffffffffffffffffffffffffffffffffffffffff1673ffffffffffffffffffffffffffffffffffffffff1673ffffffffffffffffffffffffffffffffffffffff1681526020016000820160149054906101000a900460ff16151515158152602001600182015481526020016002820154815260200160038201548152505081526020019060010190612539565b505050508152602001600b820160009054906101000a900460ff1660ff1660ff168152602001600c8201600880602002604051908101604052809291906000905b828210156126ad57838201600880602002604051908101604052809291908260088015612699576020028201916000905b82829054906101000a900460ff1660ff16815260200190600101906020826000010492830192600103820291508084116126625790505b505050505081526020019060010190612631565b505050508152505090506007846000015160ff1611806126d457506007846020015160ff16115b806126e657506007836000015160ff16115b806126f857506007836020015160ff16115b15612707576000915050612da7565b60008160e00151856000015160ff166008811061274d577f4e487b7100000000000000000000000000000000000000000000000000000000600052603260045260246000fd5b6020020151856020015160ff1660088110612791577f4e487b7100000000000000000000000000000000000000000000000000000000600052603260045260246000fd5b6020020151905060008260e00151856000015160ff16600881106127de577f4e487b7100000000000000000000000000000000000000000000000000000000600052603260045260246000fd5b6020020151856020015160ff1660088110612822577f4e487b7100000000000000000000000000000000000000000000000000000000600052603260045260246000fd5b6020020151905060008360c00151600261283c9190614df3565b60016128489190614c79565b905060008460c00151600261285d9190614df3565b60036128699190614ea3565b905060008360ff161461288457600095505050505050612da7565b8160ff168460ff16141580156128ac57506001826128a29190614c79565b60ff168460ff1614155b156128bf57600095505050505050612da7565b600060405180604001604052808a600001518a600001516128e09190614e2e565b60000b81526020018a602001518a602001516128fc9190614e2e565b60000b81525090506000604051806040016040528061291e8460000151613693565b60000b81526020016129338460200151613693565b60000b8152509050600060405180604001604052808360000151856000015161295c9190614cb0565b60000b8152602001836020015185602001516129789190614cb0565b60000b81525090508460ff168760ff161415612b9e5760008860c0015160026129a19190614df3565b60016129ad9190614e2e565b90508060000b846000015160000b148015612a0057506001846020015160000b14806129ff57507fffffffffffffffffffffffffffffffffffffffffffffffffffffffffffffffff846020015160000b145b5b15612a175760019950505050505050505050612da7565b6002846000015160000b1480612a5357507ffffffffffffffffffffffffffffffffffffffffffffffffffffffffffffffffe846000015160000b145b8015612a9757506002846020015160000b1480612a9657507ffffffffffffffffffffffffffffffffffffffffffffffffffffffffffffffffe846020015160000b145b5b15612b9857600082600001518d60000151612ab29190614c04565b9050600083602001518e60200151612aca9190614c04565b905060008b60e001518360ff1660088110612b0e577f4e487b7100000000000000000000000000000000000000000000000000000000600052603260045260246000fd5b60200201518260ff1660088110612b4e577f4e487b7100000000000000000000000000000000000000000000000000000000600052603260045260246000fd5b602002015190508760ff168160ff161480612b7a5750600188612b719190614c79565b60ff168160ff16145b15612b945760019c50505050505050505050505050612da7565b5050505b50612d9a565b816020015160000b826000015160000b14612bc457600098505050505050505050612da7565b600080600190505b836000015160000b8160000b1215612d7a576000836000015182612bf09190614d1a565b8e60000151612bff9190614c04565b90506000846020015183612c139190614d1a565b8f60200151612c229190614c04565b90508760ff168c60e001518360ff1660088110612c68577f4e487b7100000000000000000000000000000000000000000000000000000000600052603260045260246000fd5b60200201518260ff1660088110612ca8577f4e487b7100000000000000000000000000000000000000000000000000000000600052603260045260246000fd5b602002015160ff161480612d515750600188612cc49190614c79565b60ff168c60e001518360ff1660088110612d07577f4e487b7100000000000000000000000000000000000000000000000000000000600052603260045260246000fd5b60200201518260ff1660088110612d47577f4e487b7100000000000000000000000000000000000000000000000000000000600052603260045260246000fd5b602002015160ff16145b15612d65578380612d6190614fac565b9450505b50508080612d7290614f39565b915050612bcc565b5060018160ff1611612d985760019950505050505050505050612da7565b505b6000985050505050505050505b9392505050565b6000600360008581526020019081526020016000209050600081600c01846000015160ff1660088110612e0a577f4e487b7100000000000000000000000000000000000000000000000000000000600052603260045260246000fd5b01846020015160ff1660088110612e4a577f4e487b7100000000000000000000000000000000000000000000000000000000600052603260045260246000fd5b602091828204019190069054906101000a900460ff169050600082600b0160009054906101000a900460ff166002612e829190614df3565b6001612e8e9190614c79565b9050600083600b0160009054906101000a900460ff166002612eb09190614df3565b6003612ebc9190614ea3565b90508284600c01876000015160ff1660088110612f02577f4e487b7100000000000000000000000000000000000000000000000000000000600052603260045260246000fd5b01876020015160ff1660088110612f42577f4e487b7100000000000000000000000000000000000000000000000000000000600052603260045260246000fd5b602091828204019190068282829054906101000a900460ff16612f659190614ea3565b92506101000a81548160ff021916908360ff1602179055508284600c01866000015160ff1660088110612fc1577f4e487b7100000000000000000000000000000000000000000000000000000000600052603260045260246000fd5b01866020015160ff1660088110613001577f4e487b7100000000000000000000000000000000000000000000000000000000600052603260045260246000fd5b602091828204019190068282829054906101000a900460ff166130249190614c79565b92506101000a81548160ff021916908360ff1602179055508160ff168360ff161480156130aa5750600084600b0160009054906101000a900460ff1660ff1614801561307757506007856000015160ff16145b806130a95750600184600b0160009054906101000a900460ff1660ff161480156130a857506000856000015160ff16145b5b5b1561317057600184600c01866000015160ff16600881106130f4577f4e487b7100000000000000000000000000000000000000000000000000000000600052603260045260246000fd5b01866020015160ff1660088110613134577f4e487b7100000000000000000000000000000000000000000000000000000000600052603260045260246000fd5b602091828204019190068282829054906101000a900460ff166131579190614c79565b92506101000a81548160ff021916908360ff1602179055505b60006040518060400160405280886000015188600001516131919190614e2e565b60000b8152602001886020015188602001516131ad9190614e2e565b60000b8152509050600060405180604001604052806131cf8460000151613693565b60000b81526020016131e48460200151613693565b60000b8152509050600060405180604001604052808360000151856000015161320d9190614cb0565b60000b8152602001836020015185602001516132299190614cb0565b60000b8152509050600080600190505b836000015160000b8160000b121561349857600083600001518261325d9190614d1a565b8c6000015161326c9190614c04565b905060008460200151836132809190614d1a565b8d6020015161328f9190614c04565b90508760ff168b600c018360ff16600881106132d4577f4e487b7100000000000000000000000000000000000000000000000000000000600052603260045260246000fd5b018260ff1660088110613310577f4e487b7100000000000000000000000000000000000000000000000000000000600052603260045260246000fd5b602091828204019190069054906101000a900460ff1660ff1614806133d6575060018861333d9190614c79565b60ff168b600c018360ff166008811061337f577f4e487b7100000000000000000000000000000000000000000000000000000000600052603260045260246000fd5b018260ff16600881106133bb577f4e487b7100000000000000000000000000000000000000000000000000000000600052603260045260246000fd5b602091828204019190069054906101000a900460ff1660ff16145b15613483576001935060008b600c018360ff1660088110613420577f4e487b7100000000000000000000000000000000000000000000000000000000600052603260045260246000fd5b018260ff166008811061345c577f4e487b7100000000000000000000000000000000000000000000000000000000600052603260045260246000fd5b602091828204019190066101000a81548160ff021916908360ff1602179055505050613498565b5050808061349090614f39565b915050613239565b508080156134ab57506134aa8b6136dc565b5b156134be576134b98b613842565b613513565b8015806134d257506134d08b8a61118f565b155b156135125787600b0160009054906101000a900460ff1660016134f59190614ea3565b88600b0160006101000a81548160ff021916908360ff1602179055505b5b5050505050505050505050565b60008073ffffffffffffffffffffffffffffffffffffffff1660036000848152602001908152602001600020600301600060028110613588577f4e487b7100000000000000000000000000000000000000000000000000000000600052603260045260246000fd5b6004020160000160009054906101000a900473ffffffffffffffffffffffffffffffffffffffff1673ffffffffffffffffffffffffffffffffffffffff1614156135d5576000905061368e565b600073ffffffffffffffffffffffffffffffffffffffff166003600084815260200190815260200160002060030160016002811061363c577f4e487b7100000000000000000000000000000000000000000000000000000000600052603260045260246000fd5b6004020160000160009054906101000a900473ffffffffffffffffffffffffffffffffffffffff1673ffffffffffffffffffffffffffffffffffffffff161415613689576001905061368e565b600290505b919050565b6000808260000b12156136d357817fffffffffffffffffffffffffffffffffffffffffffffffffffffffffffffffff6136cc9190614d1a565b90506136d7565b8190505b919050565b600080600360008481526020019081526020016000209050600081600b0160009054906101000a900460ff1660026137149190614df3565b60036137209190614ea3565b905060005b60088160ff1610156138355760005b60088160ff16101561382157600084600c018360ff1660088110613781577f4e487b7100000000000000000000000000000000000000000000000000000000600052603260045260246000fd5b018260ff16600881106137bd577f4e487b7100000000000000000000000000000000000000000000000000000000600052603260045260246000fd5b602091828204019190069054906101000a900460ff1690508360ff168160ff1614806137fa57506001846137f19190614c79565b60ff168160ff16145b1561380d5760009550505050505061383d565b50808061381990614fac565b915050613734565b50808061382d90614fac565b915050613725565b506001925050505b919050565b600060036000838152602001908152602001600020905060018160010160026101000a81548160ff02191690831515021790555060008160030182600b0160009054906101000a900460ff1660ff16600281106138c8577f4e487b7100000000000000000000000000000000000000000000000000000000600052603260045260246000fd5b6004020160000160009054906101000a900473ffffffffffffffffffffffffffffffffffffffff16905060008260030183600b0160009054906101000a900460ff1660016139169190614ea3565b60ff1660028110613950577f4e487b7100000000000000000000000000000000000000000000000000000000600052603260045260246000fd5b6004020160000160009054906101000a900473ffffffffffffffffffffffffffffffffffffffff169050600260008373ffffffffffffffffffffffffffffffffffffffff1673ffffffffffffffffffffffffffffffffffffffff16815260200190815260200160002060020160008154809291906139cd90614f63565b9190505550600260008273ffffffffffffffffffffffffffffffffffffffff1673ffffffffffffffffffffffffffffffffffffffff1681526020019081526020016000206003016000815480929190613a2590614f63565b91905055508173ffffffffffffffffffffffffffffffffffffffff166108fc84600201549081150290604051600060405180830381858888f19350505050158015613a74573d6000803e3d6000fd5b5050505050565b6040518060400160405280600290602082028036833780820191505090505090565b6040518060a00160405280600073ffffffffffffffffffffffffffffffffffffffff1681526020016000151581526020016000815260200160008152602001600081525090565b6040518061010001604052806008905b613afc613bba565b815260200190600190039081613af45790505090565b8260088101928215613b4f579160200282015b82811115613b4e57825182906008613b3e929190613bdd565b5091602001919060010190613b25565b5b509050613b5c9190613c77565b5090565b6040518061010001604052806000815260200160001515815260200160001515815260200160001515815260200160008152602001613b9d613c9b565b8152602001600060ff168152602001613bb4613ae4565b81525090565b604051806101000160405280600890602082028036833780820191505090505090565b826008601f01602090048101928215613c665791602002820160005b83821115613c3757835183826101000a81548160ff021916908360ff1602179055509260200192600101602081600001049283019260010302613bf9565b8015613c645782816101000a81549060ff0219169055600101602081600001049283019260010302613c37565b505b509050613c739190613cc8565b5090565b5b80821115613c975760008181613c8e9190613ce5565b50600101613c78565b5090565b60405180604001604052806002905b613cb2613a9d565b815260200190600190039081613caa5790505090565b5b80821115613ce1576000816000905550600101613cc9565b5090565b5060009055565b600081359050613cfb81615063565b92915050565b600060408284031215613d1357600080fd5b613d1d6040614aca565b90506000613d2d84828501613d62565b6000830152506020613d4184828501613d62565b60208301525092915050565b600081359050613d5c8161507a565b92915050565b600081359050613d7181615091565b92915050565b600060208284031215613d8957600080fd5b6000613d9784828501613cec565b91505092915050565b600060208284031215613db257600080fd5b6000613dc084828501613d4d565b91505092915050565b60008060608385031215613ddc57600080fd5b6000613dea85828601613d4d565b9250506020613dfb85828601613d01565b9150509250929050565b600080600080600060a08688031215613e1d57600080fd5b6000613e2b88828901613d4d565b9550506020613e3c88828901613d62565b9450506040613e4d88828901613d62565b9350506060613e5e88828901613d62565b9250506080613e6f88828901613d62565b9150509295509295909350565b6000613e888383613ef6565b60208301905092915050565b6000613ea083836140ce565b6101008301905092915050565b6000613eb983836145c1565b610a008301905092915050565b6000613ed28383614665565b60a08301905092915050565b6000613eea8383614753565b60208301905092915050565b613eff81614ed7565b82525050565b613f0e81614ed7565b82525050565b613f1d81614b33565b613f278184614bab565b9250613f3282614afb565b8060005b83811015613f63578151613f4a8782613e7c565b9650613f5583614b6a565b925050600181019050613f36565b505050505050565b613f7481614b3e565b613f7e8184614bb6565b9250613f8982614b05565b8060005b83811015613fba578151613fa18782613e94565b9650613fac83614b77565b925050600181019050613f8d565b505050505050565b613fcb81614b3e565b613fd58184614bc1565b9250613fe082614b05565b8060005b83811015614011578151613ff88782613e94565b965061400383614b77565b925050600181019050613fe4565b505050505050565b600061402482614b49565b61402e8185614bcc565b935061403983614b0f565b8060005b8381101561406a5781516140518882613ead565b975061405c83614b84565b92505060018101905061403d565b5085935050505092915050565b61408081614b54565b61408a8184614bdd565b925061409582614b1f565b8060005b838110156140c65781516140ad8782613ec6565b96506140b883614b91565b925050600181019050614099565b505050505050565b6140d781614b5f565b6140e18184614be8565b92506140ec82614b29565b8060005b8381101561411d5781516141048782613ede565b965061410f83614b9e565b9250506001810190506140f0565b505050505050565b61412e81614ee9565b82525050565b61413d81614ee9565b82525050565b6000614150603183614bf3565b91507f546869732066756e6374696f6e206973207265737472696374656420746f207260008301527f65676973746572656420706c61796572730000000000000000000000000000006020830152604082019050919050565b60006141b6601e83614bf3565b91507f506c6179657220616c7265616479206a6f696e6564207468652067616d6500006000830152602082019050919050565b60006141f6601683614bf3565b91507f47616d652068617320616c726561647920656e646564000000000000000000006000830152602082019050919050565b6000614236601f83614bf3565b91507f506c61796572206973206e6f742070617274206f6620746869732067616d65006000830152602082019050919050565b6000614276601483614bf3565b91507f47616d6520686173206e6f7420737461727465640000000000000000000000006000830152602082019050919050565b60006142b6601883614bf3565b91507f47616d652068617320616c7265616479207374617274656400000000000000006000830152602082019050919050565b60006142f6601c83614bf3565b91507f506c6179657220697320616c72656164792072656769737465726564000000006000830152602082019050919050565b6000614336601f83614bf3565b91507f4e6f7420706c6179657273207475726e20746f206d616b652061206d6f7665006000830152602082019050919050565b6000614376601583614bf3565b91507f476976656e206d6f766520697320696e76616c696400000000000000000000006000830152602082019050919050565b60006143b6602e83614bf3565b91507f506c61796572206973206e6f7420616c6c6f77656420746f206163636573732060008301527f7468652067616d6520626f6172640000000000000000000000000000000000006020830152604082019050919050565b600061441c601383614bf3565b91507f47616d6520646f6573206e6f74206578697374000000000000000000000000006000830152602082019050919050565b600061445c602883614bf3565b91507f4e65656420746f20706179206174206c65617374203220657468657220746f2060008301527f72656769737465720000000000000000000000000000000000000000000000006020830152604082019050919050565b60006144c2602f83614bf3565b91507f4e65656420746f20706179207468652065786163742067616d65207374616b6560008301527f20616d6f756e7420746f206a6f696e00000000000000000000000000000000006020830152604082019050919050565b6000614528601583614bf3565b91507f506c61796572206e6f74207265676973746572656400000000000000000000006000830152602082019050919050565b6000614568603383614bf3565b91507f546869732066756e6374696f6e206973207265737472696374656420746f207460008301527f686520636f6e74726163742773206f776e6572000000000000000000000000006020830152604082019050919050565b610a00820160008201516145d86000850182614735565b5060208201516145eb6020850182614125565b5060408201516145fe6040850182614125565b5060608201516146116060850182614125565b5060808201516146246080850182614735565b5060a082015161463760a0850182614077565b5060c082015161464b6101e0850182614753565b5060e082015161465f610200850182613f6b565b50505050565b60a08201600082015161467b6000850182613ef6565b50602082015161468e6020850182614125565b5060408201516146a16040850182614735565b5060608201516146b46060850182614735565b5060808201516146c76080850182614735565b50505050565b60a0820160008201516146e36000850182613ef6565b5060208201516146f66020850182614125565b5060408201516147096040850182614735565b50606082015161471c6060850182614735565b50608082015161472f6080850182614735565b50505050565b61473e81614f22565b82525050565b61474d81614f22565b82525050565b61475c81614f2c565b82525050565b61476b81614f2c565b82525050565b60006020820190506147866000830184613f05565b92915050565b600060a0820190506147a16000830188613f05565b6147ae6020830187614134565b6147bb6040830186614744565b6147c86060830185614744565b6147d56080830184614744565b9695505050505050565b60006040820190506147f46000830184613f14565b92915050565b6000610800820190506148106000830184613fc2565b92915050565b600060208201905081810360008301526148308184614019565b905092915050565b600060208201905061484d6000830184614134565b92915050565b6000602082019050818103600083015261486c81614143565b9050919050565b6000602082019050818103600083015261488c816141a9565b9050919050565b600060208201905081810360008301526148ac816141e9565b9050919050565b600060208201905081810360008301526148cc81614229565b9050919050565b600060208201905081810360008301526148ec81614269565b9050919050565b6000602082019050818103600083015261490c816142a9565b9050919050565b6000602082019050818103600083015261492c816142e9565b9050919050565b6000602082019050818103600083015261494c81614329565b9050919050565b6000602082019050818103600083015261496c81614369565b9050919050565b6000602082019050818103600083015261498c816143a9565b9050919050565b600060208201905081810360008301526149ac8161440f565b9050919050565b600060208201905081810360008301526149cc8161444f565b9050919050565b600060208201905081810360008301526149ec816144b5565b9050919050565b60006020820190508181036000830152614a0c8161451b565b9050919050565b60006020820190508181036000830152614a2c8161455b565b9050919050565b600060a082019050614a4860008301846146cd565b92915050565b6000602082019050614a636000830184614744565b92915050565b600060c082019050614a7e6000830189614744565b614a8b6020830188614134565b614a986040830187614134565b614aa56060830186614134565b614ab26080830185614744565b614abf60a0830184614762565b979650505050505050565b6000604051905081810181811067ffffffffffffffff82111715614af157614af0615034565b5b8060405250919050565b6000819050919050565b6000819050919050565b6000819050602082019050919050565b6000819050919050565b6000819050919050565b600060029050919050565b600060089050919050565b600081519050919050565b600060029050919050565b600060089050919050565b6000602082019050919050565b6000602082019050919050565b6000602082019050919050565b6000602082019050919050565b6000602082019050919050565b600081905092915050565b600081905092915050565b600081905092915050565b600082825260208201905092915050565b600081905092915050565b600081905092915050565b600082825260208201905092915050565b6000614c0f82614ef5565b9150614c1a83614ef5565b925081607f03831360008312151615614c3657614c35614fd6565b5b817fffffffffffffffffffffffffffffffffffffffffffffffffffffffffffffff80038312600083121615614c6e57614c6d614fd6565b5b828201905092915050565b6000614c8482614f2c565b9150614c8f83614f2c565b92508260ff03821115614ca557614ca4614fd6565b5b828201905092915050565b6000614cbb82614ef5565b9150614cc683614ef5565b925082614cd657614cd5615005565b5b600160000383147fffffffffffffffffffffffffffffffffffffffffffffffffffffffffffffff8083141615614d0f57614d0e614fd6565b5b828205905092915050565b6000614d2582614ef5565b9150614d3083614ef5565b925082607f0482116000841360008413161615614d5057614d4f614fd6565b5b817fffffffffffffffffffffffffffffffffffffffffffffffffffffffffffffff800583126000841260008413161615614d8d57614d8c614fd6565b5b827fffffffffffffffffffffffffffffffffffffffffffffffffffffffffffffff800582126000841360008412161615614dca57614dc9614fd6565b5b82607f0582126000841260008412161615614de857614de7614fd6565b5b828202905092915050565b6000614dfe82614f2c565b9150614e0983614f2c565b92508160ff0483118215151615614e2357614e22614fd6565b5b828202905092915050565b6000614e3982614ef5565b9150614e4483614ef5565b9250827fffffffffffffffffffffffffffffffffffffffffffffffffffffffffffffff8001821260008412151615614e7f57614e7e614fd6565b5b82607f018213600084121615614e9857614e97614fd6565b5b828203905092915050565b6000614eae82614f2c565b9150614eb983614f2c565b925082821015614ecc57614ecb614fd6565b5b828203905092915050565b6000614ee282614f02565b9050919050565b60008115159050919050565b60008160000b9050919050565b600073ffffffffffffffffffffffffffffffffffffffff82169050919050565b6000819050919050565b600060ff82169050919050565b6000614f4482614ef5565b9150607f821415614f5857614f57614fd6565b5b600182019050919050565b6000614f6e82614f22565b91507fffffffffffffffffffffffffffffffffffffffffffffffffffffffffffffffff821415614fa157614fa0614fd6565b5b600182019050919050565b6000614fb782614f2c565b915060ff821415614fcb57614fca614fd6565b5b600182019050919050565b7f4e487b7100000000000000000000000000000000000000000000000000000000600052601160045260246000fd5b7f4e487b7100000000000000000000000000000000000000000000000000000000600052601260045260246000fd5b7f4e487b7100000000000000000000000000000000000000000000000000000000600052604160045260246000fd5b61506c81614ed7565b811461507757600080fd5b50565b61508381614f22565b811461508e57600080fd5b50565b61509a81614f2c565b81146150a557600080fd5b5056fea2646970667358221220ad3e30d4ec07c1ff22f9ccc4b979c21d71d7b63f14088f0f6e0e8037e74a4b3c64736f6c63430008000033",
  "immutableReferences": {},
  "source": "// SPDX-License-Identifier: GPL-3.0\r\n\r\npragma solidity >=0.7.0 < 0.9.0;\r\n\r\n/**\r\n * @title Checkers\r\n * @dev Play checkers against other players\r\n */\r\ncontract Checkers {\r\n\r\n    struct Player {\r\n        address playerAddr;\r\n        bool registered;\r\n        uint rank;\r\n        uint wins;\r\n        uint losses;\r\n    }\r\n\r\n    struct Game {\r\n        uint id;\r\n        bool created;\r\n        bool started;\r\n        bool ended;\r\n        uint stake;\r\n        Player[2] players;\r\n        uint8 statePlayer;\r\n        uint8[8][8] stateBoard;\r\n    }\r\n\r\n    struct Coordinate {\r\n        uint8 x;\r\n        uint8 y;\r\n    }\r\n\r\n    struct Vector {\r\n        int8 x;\r\n        int8 y;\r\n    }\r\n\r\n    address public admin;\r\n    uint public gameCounter = 0;\r\n    mapping(address => Player) public allPlayers;\r\n    mapping(uint => Game) public games;\r\n    uint[] public createdGames;\r\n\r\n    modifier restricted() {\r\n        require (\r\n            msg.sender == admin,\r\n            \"This function is restricted to the contract's owner\"\r\n        );\r\n        _;\r\n    }\r\n\r\n    modifier registered() {\r\n        require (\r\n            allPlayers[msg.sender].registered,\r\n            \"This function is restricted to registered players\"\r\n        );\r\n        _;\r\n    }\r\n\r\n    constructor() {\r\n        admin = msg.sender;\r\n        registerPlayer(admin);\r\n    }\r\n\r\n    function deposit() payable public restricted {\r\n\r\n    }\r\n\r\n    function register() payable public {\r\n        require (\r\n            msg.value >= 2 ether,\r\n            \"Need to pay at least 2 ether to register\"\r\n        );\r\n        require (\r\n            allPlayers[msg.sender].registered == false,\r\n            \"Player is already registered\"\r\n        );\r\n\r\n        //admin.call{value: msg.value}('');\r\n        //admin.transfer(msg.value);\r\n        registerPlayer(msg.sender);\r\n    }\r\n\r\n    function registerPlayer(address playerAddr) private {\r\n        Player storage player = allPlayers[playerAddr];\r\n        player.playerAddr = playerAddr;\r\n        player.registered = true;\r\n        player.rank = 100;\r\n        player.wins = 0;\r\n        player.losses = 0;\r\n    }\r\n\r\n    function createGame(uint stake) public restricted {\r\n        gameCounter++;\r\n        games[gameCounter].id = gameCounter;\r\n        games[gameCounter].created = true;\r\n        games[gameCounter].started = false;\r\n        games[gameCounter].ended = false;\r\n        games[gameCounter].stake = stake;\r\n        games[gameCounter].statePlayer = 0;\r\n        games[gameCounter].stateBoard = [\r\n            [uint8(1), 0, 1, 0, 1, 0, 1, 0],\r\n            [uint8(0), 1, 0, 1, 0, 1, 0, 1],\r\n            [uint8(1), 0, 1, 0, 1, 0, 1, 0],\r\n            [uint8(0), 0, 0, 0, 0, 0, 0, 0],\r\n            [uint8(0), 0, 0, 0, 0, 0, 0, 0],\r\n            [uint8(0), 3, 0, 3, 0, 3, 0, 3],\r\n            [uint8(3), 0, 3, 0, 3, 0, 3, 0],\r\n            [uint8(0), 3, 0, 3, 0, 3, 0, 3]\r\n        ];\r\n\r\n        createdGames.push(gameCounter);\r\n    }\r\n\r\n    function joinGame(uint gameId) public payable registered {\r\n        Game storage game = games[gameId];\r\n        Player storage player = allPlayers[msg.sender];\r\n\r\n        require (\r\n            player.registered,\r\n            \"Player not registered\"\r\n        );\r\n        require (\r\n            game.created,\r\n            \"Game does not exist\"\r\n        );\r\n        require (\r\n            !game.started,\r\n            \"Game has already started\"\r\n        );\r\n        require (\r\n            game.players[0].playerAddr != msg.sender,\r\n            \"Player already joined the game\"\r\n        );\r\n        require (\r\n            msg.value == game.stake,\r\n            \"Need to pay the exact game stake amount to join\"\r\n        );\r\n\r\n        uint8 joinedPlayerCount = getJoinedPlayerCount(gameId);\r\n        if (joinedPlayerCount < 2) {\r\n            game.players[joinedPlayerCount] = player;\r\n        }\r\n        if (joinedPlayerCount == 1) {\r\n            games[gameId].started = true;\r\n        }\r\n    }\r\n\r\n    function makeMove(uint gameId, uint8 fromX, uint8 fromY, uint8 toX, uint8 toY) public {\r\n        Coordinate memory from = Coordinate(fromX, fromY);\r\n        Coordinate memory to = Coordinate(toX, toY);\r\n\r\n        require (\r\n            playerIsJoinedGame(msg.sender, gameId),\r\n            \"Player is not part of this game\"\r\n        );\r\n        require (\r\n            gameStarted(gameId),\r\n            \"Game has not started\"\r\n        );\r\n        require (\r\n            !gameEnded(gameId),\r\n            \"Game has already ended\"\r\n        );\r\n        require (\r\n            isPlayersMove(msg.sender, gameId),\r\n            \"Not players turn to make a move\"\r\n        );\r\n        require (\r\n            isValidMove(gameId, from, to),\r\n            \"Given move is invalid\"\r\n        );\r\n\r\n        executeMove(gameId, from, to);\r\n    }\r\n\r\n    function executeMove(uint gameId, Coordinate memory from, Coordinate memory to) private {\r\n        Game storage game = games[gameId];\r\n\r\n        uint8 fromCellValue = game.stateBoard[from.x][from.y];\r\n        uint8 pawnValue = 1 + 2*game.statePlayer;\r\n        uint8 enemyPawnValue = 3 - 2*game.statePlayer;\r\n\r\n        game.stateBoard[from.x][from.y] -= fromCellValue;\r\n        game.stateBoard[to.x][to.y] += fromCellValue;\r\n\r\n        if (fromCellValue == pawnValue && (game.statePlayer == 0 && to.x == 7 || game.statePlayer == 1 && to.x == 0)) {\r\n            game.stateBoard[to.x][to.y] += 1;\r\n        }\r\n\r\n        Vector memory diff = Vector(int8(to.x) - int8(from.x), int8(to.y) - int8(from.y));\r\n        Vector memory diffAbs = Vector(getAbs(diff.x), getAbs(diff.y));\r\n        Vector memory singleDiff = Vector(diff.x / diffAbs.x, diff.y / diffAbs.y);\r\n        bool enemyFound = false;\r\n\r\n        for (int8 i = 1; i < diffAbs.x; i++) {\r\n            uint8 newX = uint8(int8(from.x) + i*singleDiff.x);\r\n            uint8 newY = uint8(int8(from.y) + i*singleDiff.y);\r\n            if (game.stateBoard[newX][newY] == enemyPawnValue || game.stateBoard[newX][newY] == enemyPawnValue + 1) {\r\n                enemyFound = true;\r\n                game.stateBoard[newX][newY] = 0;\r\n                break;\r\n            }\r\n        }\r\n\r\n        if (enemyFound && noMoreEnemiesLeft(gameId)) {\r\n            endGame(gameId);\r\n        } else if (!enemyFound || !moreCapturesExist(gameId, to)) {\r\n            game.statePlayer = 1 - game.statePlayer;\r\n        }\r\n    }\r\n\r\n    function endGame(uint gameId) private {\r\n        Game storage game = games[gameId];\r\n        game.ended = true;\r\n\r\n        address payable winnerAddress = payable(game.players[game.statePlayer].playerAddr);\r\n        address loserAddress = game.players[1 - game.statePlayer].playerAddr;\r\n\r\n        allPlayers[winnerAddress].wins++;\r\n        allPlayers[loserAddress].losses++;\r\n\r\n        winnerAddress.transfer(game.stake);\r\n    }\r\n\r\n    /* Utility views ********************************************************************************/\r\n\r\n    function getPlayer() public view returns (Player memory) {\r\n        return allPlayers[msg.sender];\r\n    }\r\n\r\n    function getAdminAddress() public view returns (address) {\r\n        return admin;\r\n    }\r\n\r\n    function playerIsAdmin(address player) private view returns (bool) {\r\n        return player == admin;\r\n    }\r\n\r\n    function gameCreated(uint gameId) private view returns (bool) {\r\n        return games[gameId].started;\r\n    }\r\n\r\n    function gameStarted(uint gameId) private view returns (bool) {\r\n        return games[gameId].started;\r\n    }\r\n\r\n    function gameEnded(uint gameId) private view returns (bool) {\r\n        return games[gameId].ended;\r\n    }\r\n\r\n    function getBoard(uint gameId) public view returns (uint8[8][8] memory) {\r\n        require (\r\n            playerIsAdmin(msg.sender) || playerIsJoinedGame(msg.sender, gameId),\r\n            \"Player is not allowed to access the game board\"\r\n        );\r\n\r\n        uint8[8][8] memory gameBoard = games[gameId].stateBoard;\r\n        return gameBoard;\r\n    }\r\n\r\n    function getSenderGames() public view registered returns (Game[] memory) {\r\n        Game[] memory returnedGameList = new Game[](createdGames.length);\r\n        uint indexCounter = 0;\r\n\r\n        for (uint i = 0; i < createdGames.length; i++) {\r\n            uint gameId = createdGames[i];\r\n            Game storage game = games[gameId];\r\n\r\n            if (!game.started || playerIsJoinedGame(msg.sender, game.id)) {\r\n                returnedGameList[indexCounter] = game;\r\n                indexCounter++;\r\n            }\r\n        }\r\n\r\n        return returnedGameList;\r\n    }\r\n\r\n    function getJoinedPlayerCount(uint gameId) private view returns (uint8) {\r\n        if (games[gameId].players[0].playerAddr == address(0)) {\r\n            return 0;\r\n        }\r\n        if (games[gameId].players[1].playerAddr == address(0)) {\r\n            return 1;\r\n        }\r\n\r\n        return 2;\r\n    }\r\n\r\n    function playerIsJoinedGame(address playerAddr, uint gameId) private view returns (bool) {\r\n        return games[gameId].players[0].playerAddr == playerAddr || games[gameId].players[1].playerAddr == playerAddr;\r\n    }\r\n\r\n    function isPlayersMove(address playerAddr, uint gameId) private view returns (bool) {\r\n        uint playerToMove = games[gameId].statePlayer;\r\n        return games[gameId].players[playerToMove].playerAddr == playerAddr;\r\n    }\r\n\r\n    function isValidMove(uint gameId, Coordinate memory from, Coordinate memory to) private view returns (bool) {\r\n        Game memory game = games[gameId];\r\n\r\n        if (from.x > 7 || from.y > 7 || to.x > 7 || to.y > 7) {\r\n            return false;\r\n        }\r\n\r\n        uint8 fromCellValue = game.stateBoard[from.x][from.y];\r\n        uint8 toCellValue = game.stateBoard[to.x][to.y];\r\n\r\n        uint8 pawnValue = 1 + 2*game.statePlayer;\r\n        uint8 enemyPawnValue = 3 - 2*game.statePlayer;\r\n\r\n        if (toCellValue != 0) {\r\n            return false;\r\n        }\r\n        if (fromCellValue != pawnValue && fromCellValue != pawnValue + 1) {\r\n            return false;\r\n        }\r\n\r\n        Vector memory diff = Vector(int8(to.x) - int8(from.x), int8(to.y) - int8(from.y));\r\n        Vector memory diffAbs = Vector(getAbs(diff.x), getAbs(diff.y));\r\n        Vector memory singleDiff = Vector(diff.x / diffAbs.x, diff.y / diffAbs.y);\r\n\r\n        if (fromCellValue == pawnValue) { // Check pawn moves\r\n            int8 directionModifier = 1 - int8(2*game.statePlayer); // If white then go down (1), if black then go up (-1)\r\n\r\n            if (diff.x == directionModifier && (diff.y == 1 || diff.y == -1)) {\r\n                return true;\r\n            }\r\n            if ((diff.x == 2 || diff.x == -2) && (diff.y == 2 || diff.y == -2)) {\r\n                uint8 newX = uint8(int8(from.x) + singleDiff.x);\r\n                uint8 newY = uint8(int8(from.y) + singleDiff.y);\r\n                uint8 middlePieceValue = game.stateBoard[newX][newY];\r\n                if (middlePieceValue == enemyPawnValue || middlePieceValue == enemyPawnValue + 1) {\r\n                    return true;\r\n                }\r\n            }\r\n        } else { // Check king moves\r\n            if (diffAbs.x != diffAbs.y) { // Can move only diagonally\r\n                return false;\r\n            }\r\n            uint8 enemyCounter = 0;\r\n\r\n            for (int8 i = 1; i < diffAbs.x; i++) {\r\n                uint8 newX = uint8(int8(from.x) + i*singleDiff.x);\r\n                uint8 newY = uint8(int8(from.y) + i*singleDiff.y);\r\n                if (game.stateBoard[newX][newY] == enemyPawnValue || game.stateBoard[newX][newY] == enemyPawnValue + 1) {\r\n                    enemyCounter++;\r\n                }\r\n            }\r\n\r\n            if (enemyCounter <= 1) { // Cant jump over more than one enemy\r\n                return true;\r\n            }\r\n        }\r\n\r\n        return false;\r\n    }\r\n\r\n    function moreCapturesExist(uint gameId, Coordinate memory from) public view returns (bool) {\r\n        Game storage game = games[gameId];\r\n        \r\n        uint8 fromCellValue = game.stateBoard[from.x][from.y];\r\n        uint8 pawnValue = 1 + 2*game.statePlayer;\r\n        uint8 enemyPawnValue = 3 - 2*game.statePlayer;\r\n\r\n        int8 limit;\r\n        if (fromCellValue == pawnValue) {\r\n            limit = 2;\r\n        } else {\r\n            limit = 7;\r\n        }\r\n\r\n        for (int8 xDirection = -1; xDirection <= 1; xDirection += 2) {\r\n            for (int8 yDirection = -1; yDirection <= 1; yDirection += 2) { // All diagonals\r\n                for (int8 i = 1; i < limit; i++) { // All cells along diagonal\r\n                    int8 newX = int8(from.x) + i*xDirection;\r\n                    int8 newY = int8(from.y) + i*yDirection;\r\n                    if (newX < 1 || newX > 6 || newY < 1 || newY > 6) {\r\n                        break;\r\n                    }\r\n                    uint8 targetCellValue = game.stateBoard[uint8(newX)][uint8(newY)];\r\n                    if (targetCellValue == enemyPawnValue || targetCellValue == enemyPawnValue + 1) {\r\n                        if (game.stateBoard[uint8(newX + xDirection)][uint8(newY + yDirection)] == 0) { // Check there's an empty spot behind enemy\r\n                            return true;\r\n                        }\r\n                    }\r\n                }\r\n            }\r\n        }\r\n\r\n        return false;\r\n    }\r\n\r\n    function noMoreEnemiesLeft(uint gameId) private view returns (bool) {\r\n        Game storage game = games[gameId];\r\n        uint8 enemyPawnValue = 3 - 2*game.statePlayer;\r\n\r\n        for (uint8 i = 0; i < 8; i++) {\r\n            for (uint8 j = 0; j < 8; j++) {\r\n                uint8 targetCellValue = game.stateBoard[i][j];\r\n                if (targetCellValue == enemyPawnValue || targetCellValue == enemyPawnValue + 1) {\r\n                    return false;\r\n                }\r\n            }\r\n        }\r\n\r\n        return true;\r\n    }\r\n\r\n    function getAbs(int8 x) private pure returns (int8) {\r\n        if (x < 0) {\r\n            return -1*x;\r\n        } else {\r\n            return x;\r\n        }\r\n    }\r\n\r\n    /************************************************************************************************/\r\n\r\n    /* Test views */\r\n    function isPlayerRegistered(address player) public view returns(bool) {\r\n        return allPlayers[player].registered;\r\n    }\r\n\r\n    function isGameCreated(uint gameId) public view returns(bool) {\r\n        return games[gameId].created;\r\n    }\r\n\r\n    function isGameStarted(uint gameId) public view returns(bool) {\r\n        return games[gameId].started;\r\n    }\r\n\r\n    function isJoinedGame(uint gameId) public view returns(bool) {\r\n        return games[gameId].players[0].playerAddr == msg.sender || games[gameId].players[1].playerAddr == msg.sender;\r\n    }\r\n\r\n    function getGamePlayers(uint gameId) public view returns(address[2] memory) {\r\n        address[2] memory addresses;\r\n        addresses[0] = games[gameId].players[0].playerAddr;\r\n        addresses[1] = games[gameId].players[1].playerAddr;\r\n        return addresses;\r\n    }\r\n}\r\n",
  "sourcePath": "C:/Users/ralfs/Desktop/school 8 sem/BC/contracts/contracts/Checkers.sol",
  "compiler": {
    "name": "solc",
    "version": "0.8.0+commit.c7dfd78e.Emscripten.clang"
  },
  "schemaVersion": "3.3.4",
  "updatedAt": "2021-04-19T14:09:08.788Z",
  "networkType": "ethereum",
  "devdoc": {
    "details": "Play checkers against other players",
    "kind": "dev",
    "methods": {},
    "title": "Checkers",
    "version": 1
  },
  "userdoc": {
    "kind": "user",
    "methods": {},
    "version": 1
  }
}